{
  "contractName": "World",
  "abi": [
    {
      "inputs": [],
      "stateMutability": "nonpayable",
      "type": "constructor"
    },
    {
      "anonymous": false,
      "inputs": [
        {
          "indexed": false,
          "internalType": "uint256",
          "name": "_pokedex_id",
          "type": "uint256"
        },
        {
          "indexed": false,
          "internalType": "uint256",
          "name": "_species_count",
          "type": "uint256"
        }
      ],
      "name": "PokemonCaught",
      "type": "event"
    },
    {
      "anonymous": false,
      "inputs": [
        {
          "indexed": false,
          "internalType": "uint256",
          "name": "_pokedex_id",
          "type": "uint256"
        },
        {
          "indexed": false,
          "internalType": "uint256",
          "name": "_count",
          "type": "uint256"
        }
      ],
      "name": "SpeciesAdded",
      "type": "event"
    },
    {
      "inputs": [],
      "name": "pokemon_counts",
      "outputs": [
        {
          "internalType": "uint256",
          "name": "",
          "type": "uint256"
        }
      ],
      "stateMutability": "view",
      "type": "function",
      "constant": true
    },
    {
      "inputs": [
        {
          "internalType": "uint256",
          "name": "",
          "type": "uint256"
        }
      ],
      "name": "pokemons",
      "outputs": [
        {
          "internalType": "uint256",
          "name": "id",
          "type": "uint256"
        },
        {
          "internalType": "uint256",
          "name": "species_id",
          "type": "uint256"
        },
        {
          "internalType": "uint256",
          "name": "pokedex_id",
          "type": "uint256"
        },
        {
          "internalType": "address",
          "name": "own",
          "type": "address"
        },
        {
          "internalType": "uint256",
          "name": "hp",
          "type": "uint256"
        },
        {
          "internalType": "uint256",
          "name": "att",
          "type": "uint256"
        },
        {
          "internalType": "uint256",
          "name": "def",
          "type": "uint256"
        },
        {
          "internalType": "uint256",
          "name": "spatt",
          "type": "uint256"
        },
        {
          "internalType": "uint256",
          "name": "spdef",
          "type": "uint256"
        },
        {
          "internalType": "uint256",
          "name": "speed",
          "type": "uint256"
        },
        {
          "internalType": "uint256",
          "name": "lv",
          "type": "uint256"
        }
      ],
      "stateMutability": "view",
      "type": "function",
      "constant": true
    },
    {
      "inputs": [
        {
          "internalType": "uint256",
          "name": "",
          "type": "uint256"
        }
      ],
      "name": "species",
      "outputs": [
        {
          "internalType": "uint256",
          "name": "id",
          "type": "uint256"
        },
        {
          "internalType": "uint256",
          "name": "pokedex_id",
          "type": "uint256"
        },
        {
          "internalType": "uint256",
          "name": "count",
          "type": "uint256"
        },
        {
          "internalType": "uint256",
          "name": "caught",
          "type": "uint256"
        }
      ],
      "stateMutability": "view",
      "type": "function",
      "constant": true
    },
    {
      "inputs": [],
      "name": "unique_species_count",
      "outputs": [
        {
          "internalType": "uint256",
          "name": "",
          "type": "uint256"
        }
      ],
      "stateMutability": "view",
      "type": "function",
      "constant": true
    },
    {
      "inputs": [
        {
          "internalType": "uint256",
          "name": "_pokedex_id",
          "type": "uint256"
        },
        {
          "internalType": "uint256",
          "name": "_count",
          "type": "uint256"
        }
      ],
      "name": "addSpecies",
      "outputs": [],
      "stateMutability": "nonpayable",
      "type": "function"
    },
    {
      "inputs": [
        {
          "internalType": "uint256",
          "name": "_id",
          "type": "uint256"
        },
        {
          "internalType": "uint256",
          "name": "_pokedex_id",
          "type": "uint256"
        },
        {
          "internalType": "uint256",
          "name": "_hp",
          "type": "uint256"
        },
        {
          "internalType": "uint256",
          "name": "_att",
          "type": "uint256"
        },
        {
          "internalType": "uint256",
          "name": "_def",
          "type": "uint256"
        },
        {
          "internalType": "uint256",
          "name": "_spatt",
          "type": "uint256"
        },
        {
          "internalType": "uint256",
          "name": "_spdef",
          "type": "uint256"
        },
        {
          "internalType": "uint256",
          "name": "_speed",
          "type": "uint256"
        },
        {
          "internalType": "uint256",
          "name": "_lv",
          "type": "uint256"
        }
      ],
      "name": "caughtPokemon",
      "outputs": [],
      "stateMutability": "nonpayable",
      "type": "function"
    }
  ],
  "bytecode": "0x60806040523480156200001157600080fd5b506000600281905550600060038190555062000036600160026200007860201b60201c565b6200004a600460026200007860201b60201c565b6200005e600760026200007860201b60201c565b62000072600a60026200007860201b60201c565b620002aa565b6000806000848152602001908152602001600020600201541115620000cb57806000808481526020019081526020016000206002016000828254620000be9190620001c1565b9250508190555062000149565b60026000815480929190620000e0906200021e565b91905055506040518060800160405280600254815260200183815260200182815260200160008152506000806002548152602001908152602001600020600082015181600001556020820151816001015560408201518160020155606082015181600301559050505b7f09c3d8bd28b00bc90cd31fd1e6096950462b42e8ba91631b43b88f24f9e2aa0e82826040516200017c9291906200027d565b60405180910390a15050565b6000819050919050565b7f4e487b7100000000000000000000000000000000000000000000000000000000600052601160045260246000fd5b6000620001ce8262000188565b9150620001db8362000188565b9250827fffffffffffffffffffffffffffffffffffffffffffffffffffffffffffffffff0382111562000213576200021262000192565b5b828201905092915050565b60006200022b8262000188565b91507fffffffffffffffffffffffffffffffffffffffffffffffffffffffffffffffff82141562000261576200026062000192565b5b600182019050919050565b620002778162000188565b82525050565b60006040820190506200029460008301856200026c565b620002a360208301846200026c565b9392505050565b61096580620002ba6000396000f3fe608060405234801561001057600080fd5b50600436106100625760003560e01c8063283dad14146100675780634ca57bb11461008557806355ed26c9146100a357806384d1b3fe146100d657806385831079146100f2578063e869a61a1461012c575b600080fd5b61006f610148565b60405161007c9190610584565b60405180910390f35b61008d61014e565b60405161009a9190610584565b60405180910390f35b6100bd60048036038101906100b891906105d0565b610154565b6040516100cd94939291906105fd565b60405180910390f35b6100f060048036038101906100eb9190610642565b610184565b005b61010c600480360381019061010791906105d0565b6103e9565b6040516101239b9a9998979695949392919061074d565b60405180910390f35b610146600480360381019061014191906107f8565b610463565b005b60035481565b60025481565b60006020528060005260406000206000915090508060000154908060010154908060020154908060030154905084565b6000808a8152602001908152602001600020600201546000808b81526020019081526020016000206003015410156103de5760008060008b815260200190815260200160002060405180608001604052908160008201548152602001600182015481526020016002820154815260200160038201548152505090506001816060018181516102129190610867565b9150818152505060016003600082825461022c9190610867565b925050819055506040518061016001604052806003548152602001826060015181526020018a81526020013373ffffffffffffffffffffffffffffffffffffffff1681526020018981526020018881526020018781526020018681526020018581526020018481526020018381525060016000600354815260200190815260200160002060008201518160000155602082015181600101556040820151816002015560608201518160030160006101000a81548173ffffffffffffffffffffffffffffffffffffffff021916908373ffffffffffffffffffffffffffffffffffffffff1602179055506080820151816004015560a0820151816005015560c0820151816006015560e082015181600701556101008201518160080155610120820151816009015561014082015181600a0155905050806000808c8152602001908152602001600020600082015181600001556020820151816001015560408201518160020155606082015181600301559050507f09c3d8bd28b00bc90cd31fd1e6096950462b42e8ba91631b43b88f24f9e2aa0e8982606001516040516103d49291906108bd565b60405180910390a1505b505050505050505050565b60016020528060005260406000206000915090508060000154908060010154908060020154908060030160009054906101000a900473ffffffffffffffffffffffffffffffffffffffff169080600401549080600501549080600601549080600701549080600801549080600901549080600a015490508b565b60008060008481526020019081526020016000206002015411156104b2578060008084815260200190815260200160002060020160008282546104a69190610867565b9250508190555061052e565b600260008154809291906104c5906108e6565b91905055506040518060800160405280600254815260200183815260200182815260200160008152506000806002548152602001908152602001600020600082015181600001556020820151816001015560408201518160020155606082015181600301559050505b7f09c3d8bd28b00bc90cd31fd1e6096950462b42e8ba91631b43b88f24f9e2aa0e828260405161055f9291906108bd565b60405180910390a15050565b6000819050919050565b61057e8161056b565b82525050565b60006020820190506105996000830184610575565b92915050565b600080fd5b6105ad8161056b565b81146105b857600080fd5b50565b6000813590506105ca816105a4565b92915050565b6000602082840312156105e6576105e561059f565b5b60006105f4848285016105bb565b91505092915050565b60006080820190506106126000830187610575565b61061f6020830186610575565b61062c6040830185610575565b6106396060830184610575565b95945050505050565b60008060008060008060008060006101208a8c0312156106655761066461059f565b5b60006106738c828d016105bb565b99505060206106848c828d016105bb565b98505060406106958c828d016105bb565b97505060606106a68c828d016105bb565b96505060806106b78c828d016105bb565b95505060a06106c88c828d016105bb565b94505060c06106d98c828d016105bb565b93505060e06106ea8c828d016105bb565b9250506101006106fc8c828d016105bb565b9150509295985092959850929598565b600073ffffffffffffffffffffffffffffffffffffffff82169050919050565b60006107378261070c565b9050919050565b6107478161072c565b82525050565b600061016082019050610763600083018e610575565b610770602083018d610575565b61077d604083018c610575565b61078a606083018b61073e565b610797608083018a610575565b6107a460a0830189610575565b6107b160c0830188610575565b6107be60e0830187610575565b6107cc610100830186610575565b6107da610120830185610575565b6107e8610140830184610575565b9c9b505050505050505050505050565b6000806040838503121561080f5761080e61059f565b5b600061081d858286016105bb565b925050602061082e858286016105bb565b9150509250929050565b7f4e487b7100000000000000000000000000000000000000000000000000000000600052601160045260246000fd5b60006108728261056b565b915061087d8361056b565b9250827fffffffffffffffffffffffffffffffffffffffffffffffffffffffffffffffff038211156108b2576108b1610838565b5b828201905092915050565b60006040820190506108d26000830185610575565b6108df6020830184610575565b9392505050565b60006108f18261056b565b91507fffffffffffffffffffffffffffffffffffffffffffffffffffffffffffffffff82141561092457610923610838565b5b60018201905091905056fea26469706673582212200e1e9cc048d788744e8f2435991b8367012329f7b62f6510fd929bdc02800ce064736f6c634300080a0033",
  "immutableReferences": {},
  "source": "// SPDX-License-Identifier: MIT\npragma solidity ^0.8.0; // Solidity Version definition\n\ncontract World {\n    // Contract name\n\n    //Structures\n    struct Species {\n        uint256 id;\n        uint256 pokedex_id;\n        uint256 count;\n        uint256 caught;\n    }\n\n    // Captured pokemon\n    struct Pokemon {\n        uint256 id;\n        uint256 species_id;\n        uint256 pokedex_id;\n        address own;\n        //Add poke stats down here maybe\n        uint256 hp;\n        uint256 att;\n        uint256 def;\n        uint256 spatt;\n        uint256 spdef;\n        uint256 speed;\n        uint256 lv;\n    }\n\n    // Maps\n    mapping(uint256 => Species) public species; // Key-value mapping structure for tasks (id => Species)\n    mapping(uint256 => Pokemon) public pokemons; // Key-value mapping structure for tasks (id => Pokemon)\n\n    // Counters\n    uint256 public unique_species_count; // Keep track of number of tasks in todoList\n    uint256 public pokemon_counts; // Keep track of number of tasks in todoList\n\n    // Run every time contract is deployed\n    constructor() {\n        unique_species_count = 0;\n        pokemon_counts = 0;\n        //init some species\n        addSpecies(1, 2); //Bulbasaur id: 1\n        addSpecies(4, 2); //Charmander id: 4\n        addSpecies(7, 2); //Squirtle id: 7\n        addSpecies(10, 2); //Caterpie id: 10\n    }\n\n    // Events are useful to know when things are done (states)\n    event SpeciesAdded(uint256 _pokedex_id, uint256 _count);\n    event PokemonCaught(uint256 _pokedex_id, uint256 _species_count);\n\n    function addSpecies(uint256 _pokedex_id, uint256 _count) public {\n        if (species[_pokedex_id].count > 0) {\n            //exist species\n            species[_pokedex_id].count += _count;\n        } else {\n            unique_species_count++;\n            species[unique_species_count] = Species(unique_species_count, _pokedex_id, _count, 0);\n        }\n        emit SpeciesAdded(_pokedex_id, _count); // Broadcast the event\n    }\n\n    function caughtPokemon(uint _id, uint256 _pokedex_id, uint256 _hp, uint256 _att, uint256 _def, uint256 _spatt, uint256 _spdef, uint256 _speed, uint256 _lv)\n        public\n    {\n        if (species[_id].caught < species[_id].count) {\n            //exist species\n            Species memory _species = species[_id];\n            _species.caught += 1;\n\n            pokemon_counts += 1;\n            pokemons[pokemon_counts] = Pokemon(\n                pokemon_counts,\n                _species.caught,\n                _pokedex_id,\n                msg.sender,\n                _hp,_att,_def,_spatt,_spdef,_speed,_lv\n            );\n            species[_id] = _species;\n            emit SpeciesAdded(_pokedex_id, _species.caught); // Broadcast the event\n        }\n    }\n}",
  "sourcePath": "/Users/bellawei/Study/183/project/eth-react-app/src/contracts/World.sol",
  "compiler": {
    "name": "solc",
    "version": "0.8.10+commit.fc410830.Emscripten.clang"
  },
  "schemaVersion": "3.4.3",
  "updatedAt": "2021-11-28T23:15:14.370Z",
  "networkType": "ethereum",
  "devdoc": {
    "kind": "dev",
    "methods": {},
    "version": 1
  },
  "userdoc": {
    "kind": "user",
    "methods": {},
    "version": 1
  }
}